{
  "_format": "hh-sol-artifact-1",
  "contractName": "StudentBadgeNFT",
  "sourceName": "contracts/StudentBadgeNFT.sol",
  "abi": [
    {
      "inputs": [
        {
          "internalType": "address",
          "name": "initialOwner",
          "type": "address"
        }
      ],
      "stateMutability": "nonpayable",
      "type": "constructor"
    },
    {
      "inputs": [
        {
          "internalType": "address",
          "name": "sender",
          "type": "address"
        },
        {
          "internalType": "uint256",
          "name": "tokenId",
          "type": "uint256"
        },
        {
          "internalType": "address",
          "name": "owner",
          "type": "address"
        }
      ],
      "name": "ERC721IncorrectOwner",
      "type": "error"
    },
    {
      "inputs": [
        {
          "internalType": "address",
          "name": "operator",
          "type": "address"
        },
        {
          "internalType": "uint256",
          "name": "tokenId",
          "type": "uint256"
        }
      ],
      "name": "ERC721InsufficientApproval",
      "type": "error"
    },
    {
      "inputs": [
        {
          "internalType": "address",
          "name": "approver",
          "type": "address"
        }
      ],
      "name": "ERC721InvalidApprover",
      "type": "error"
    },
    {
      "inputs": [
        {
          "internalType": "address",
          "name": "operator",
          "type": "address"
        }
      ],
      "name": "ERC721InvalidOperator",
      "type": "error"
    },
    {
      "inputs": [
        {
          "internalType": "address",
          "name": "owner",
          "type": "address"
        }
      ],
      "name": "ERC721InvalidOwner",
      "type": "error"
    },
    {
      "inputs": [
        {
          "internalType": "address",
          "name": "receiver",
          "type": "address"
        }
      ],
      "name": "ERC721InvalidReceiver",
      "type": "error"
    },
    {
      "inputs": [
        {
          "internalType": "address",
          "name": "sender",
          "type": "address"
        }
      ],
      "name": "ERC721InvalidSender",
      "type": "error"
    },
    {
      "inputs": [
        {
          "internalType": "uint256",
          "name": "tokenId",
          "type": "uint256"
        }
      ],
      "name": "ERC721NonexistentToken",
      "type": "error"
    },
    {
      "inputs": [
        {
          "internalType": "address",
          "name": "owner",
          "type": "address"
        }
      ],
      "name": "OwnableInvalidOwner",
      "type": "error"
    },
    {
      "inputs": [
        {
          "internalType": "address",
          "name": "account",
          "type": "address"
        }
      ],
      "name": "OwnableUnauthorizedAccount",
      "type": "error"
    },
    {
      "anonymous": false,
      "inputs": [
        {
          "indexed": true,
          "internalType": "address",
          "name": "owner",
          "type": "address"
        },
        {
          "indexed": true,
          "internalType": "address",
          "name": "approved",
          "type": "address"
        },
        {
          "indexed": true,
          "internalType": "uint256",
          "name": "tokenId",
          "type": "uint256"
        }
      ],
      "name": "Approval",
      "type": "event"
    },
    {
      "anonymous": false,
      "inputs": [
        {
          "indexed": true,
          "internalType": "address",
          "name": "owner",
          "type": "address"
        },
        {
          "indexed": true,
          "internalType": "address",
          "name": "operator",
          "type": "address"
        },
        {
          "indexed": false,
          "internalType": "bool",
          "name": "approved",
          "type": "bool"
        }
      ],
      "name": "ApprovalForAll",
      "type": "event"
    },
    {
      "anonymous": false,
      "inputs": [
        {
          "indexed": true,
          "internalType": "address",
          "name": "recipient",
          "type": "address"
        },
        {
          "indexed": true,
          "internalType": "uint256",
          "name": "tokenId",
          "type": "uint256"
        },
        {
          "indexed": false,
          "internalType": "string",
          "name": "badgeType",
          "type": "string"
        },
        {
          "indexed": false,
          "internalType": "string",
          "name": "metadataURI",
          "type": "string"
        }
      ],
      "name": "BadgeMinted",
      "type": "event"
    },
    {
      "anonymous": false,
      "inputs": [
        {
          "indexed": false,
          "internalType": "uint256",
          "name": "_fromTokenId",
          "type": "uint256"
        },
        {
          "indexed": false,
          "internalType": "uint256",
          "name": "_toTokenId",
          "type": "uint256"
        }
      ],
      "name": "BatchMetadataUpdate",
      "type": "event"
    },
    {
      "anonymous": false,
      "inputs": [
        {
          "indexed": false,
          "internalType": "uint256",
          "name": "_tokenId",
          "type": "uint256"
        }
      ],
      "name": "MetadataUpdate",
      "type": "event"
    },
    {
      "anonymous": false,
      "inputs": [
        {
          "indexed": true,
          "internalType": "address",
          "name": "previousOwner",
          "type": "address"
        },
        {
          "indexed": true,
          "internalType": "address",
          "name": "newOwner",
          "type": "address"
        }
      ],
      "name": "OwnershipTransferred",
      "type": "event"
    },
    {
      "anonymous": false,
      "inputs": [
        {
          "indexed": true,
          "internalType": "address",
          "name": "from",
          "type": "address"
        },
        {
          "indexed": true,
          "internalType": "address",
          "name": "to",
          "type": "address"
        },
        {
          "indexed": true,
          "internalType": "uint256",
          "name": "tokenId",
          "type": "uint256"
        }
      ],
      "name": "Transfer",
      "type": "event"
    },
    {
      "inputs": [
        {
          "internalType": "address",
          "name": "to",
          "type": "address"
        },
        {
          "internalType": "uint256",
          "name": "tokenId",
          "type": "uint256"
        }
      ],
      "name": "approve",
      "outputs": [],
      "stateMutability": "nonpayable",
      "type": "function"
    },
    {
      "inputs": [
        {
          "internalType": "string",
          "name": "",
          "type": "string"
        }
      ],
      "name": "badgeTypes",
      "outputs": [
        {
          "internalType": "uint256",
          "name": "minted",
          "type": "uint256"
        },
        {
          "internalType": "uint256",
          "name": "cap",
          "type": "uint256"
        }
      ],
      "stateMutability": "view",
      "type": "function"
    },
    {
      "inputs": [
        {
          "internalType": "address",
          "name": "owner",
          "type": "address"
        }
      ],
      "name": "balanceOf",
      "outputs": [
        {
          "internalType": "uint256",
          "name": "",
          "type": "uint256"
        }
      ],
      "stateMutability": "view",
      "type": "function"
    },
    {
      "inputs": [
        {
          "internalType": "uint256",
          "name": "tokenId",
          "type": "uint256"
        }
      ],
      "name": "getApproved",
      "outputs": [
        {
          "internalType": "address",
          "name": "",
          "type": "address"
        }
      ],
      "stateMutability": "view",
      "type": "function"
    },
    {
      "inputs": [
        {
          "internalType": "address",
          "name": "owner",
          "type": "address"
        },
        {
          "internalType": "address",
          "name": "operator",
          "type": "address"
        }
      ],
      "name": "isApprovedForAll",
      "outputs": [
        {
          "internalType": "bool",
          "name": "",
          "type": "bool"
        }
      ],
      "stateMutability": "view",
      "type": "function"
    },
    {
      "inputs": [
        {
          "internalType": "address",
          "name": "recipient",
          "type": "address"
        },
        {
          "internalType": "string",
          "name": "badgeType",
          "type": "string"
        },
        {
          "internalType": "string",
          "name": "tokenURI",
          "type": "string"
        }
      ],
      "name": "mintBadge",
      "outputs": [
        {
          "internalType": "uint256",
          "name": "",
          "type": "uint256"
        }
      ],
      "stateMutability": "nonpayable",
      "type": "function"
    },
    {
      "inputs": [],
      "name": "name",
      "outputs": [
        {
          "internalType": "string",
          "name": "",
          "type": "string"
        }
      ],
      "stateMutability": "view",
      "type": "function"
    },
    {
      "inputs": [],
      "name": "owner",
      "outputs": [
        {
          "internalType": "address",
          "name": "",
          "type": "address"
        }
      ],
      "stateMutability": "view",
      "type": "function"
    },
    {
      "inputs": [
        {
          "internalType": "uint256",
          "name": "tokenId",
          "type": "uint256"
        }
      ],
      "name": "ownerOf",
      "outputs": [
        {
          "internalType": "address",
          "name": "",
          "type": "address"
        }
      ],
      "stateMutability": "view",
      "type": "function"
    },
    {
      "inputs": [],
      "name": "renounceOwnership",
      "outputs": [],
      "stateMutability": "nonpayable",
      "type": "function"
    },
    {
      "inputs": [
        {
          "internalType": "address",
          "name": "from",
          "type": "address"
        },
        {
          "internalType": "address",
          "name": "to",
          "type": "address"
        },
        {
          "internalType": "uint256",
          "name": "tokenId",
          "type": "uint256"
        }
      ],
      "name": "safeTransferFrom",
      "outputs": [],
      "stateMutability": "nonpayable",
      "type": "function"
    },
    {
      "inputs": [
        {
          "internalType": "address",
          "name": "from",
          "type": "address"
        },
        {
          "internalType": "address",
          "name": "to",
          "type": "address"
        },
        {
          "internalType": "uint256",
          "name": "tokenId",
          "type": "uint256"
        },
        {
          "internalType": "bytes",
          "name": "data",
          "type": "bytes"
        }
      ],
      "name": "safeTransferFrom",
      "outputs": [],
      "stateMutability": "nonpayable",
      "type": "function"
    },
    {
      "inputs": [
        {
          "internalType": "address",
          "name": "operator",
          "type": "address"
        },
        {
          "internalType": "bool",
          "name": "approved",
          "type": "bool"
        }
      ],
      "name": "setApprovalForAll",
      "outputs": [],
      "stateMutability": "nonpayable",
      "type": "function"
    },
    {
      "inputs": [
        {
          "internalType": "bytes4",
          "name": "interfaceId",
          "type": "bytes4"
        }
      ],
      "name": "supportsInterface",
      "outputs": [
        {
          "internalType": "bool",
          "name": "",
          "type": "bool"
        }
      ],
      "stateMutability": "view",
      "type": "function"
    },
    {
      "inputs": [],
      "name": "symbol",
      "outputs": [
        {
          "internalType": "string",
          "name": "",
          "type": "string"
        }
      ],
      "stateMutability": "view",
      "type": "function"
    },
    {
      "inputs": [
        {
          "internalType": "uint256",
          "name": "tokenId",
          "type": "uint256"
        }
      ],
      "name": "tokenURI",
      "outputs": [
        {
          "internalType": "string",
          "name": "",
          "type": "string"
        }
      ],
      "stateMutability": "view",
      "type": "function"
    },
    {
      "inputs": [],
      "name": "totalSupply",
      "outputs": [
        {
          "internalType": "uint256",
          "name": "",
          "type": "uint256"
        }
      ],
      "stateMutability": "view",
      "type": "function"
    },
    {
      "inputs": [
        {
          "internalType": "address",
          "name": "from",
          "type": "address"
        },
        {
          "internalType": "address",
          "name": "to",
          "type": "address"
        },
        {
          "internalType": "uint256",
          "name": "tokenId",
          "type": "uint256"
        }
      ],
      "name": "transferFrom",
      "outputs": [],
      "stateMutability": "nonpayable",
      "type": "function"
    },
    {
      "inputs": [
        {
          "internalType": "address",
          "name": "newOwner",
          "type": "address"
        }
      ],
      "name": "transferOwnership",
      "outputs": [],
      "stateMutability": "nonpayable",
      "type": "function"
    }
  ],
  "bytecode": "0x608060405234801561001057600080fd5b5060405161312938038061312983398181016040528101906100329190610272565b806040518060400160405280600f81526020017f53747564656e7442616467654e465400000000000000000000000000000000008152506040518060400160405280600581526020017f53424e465400000000000000000000000000000000000000000000000000000081525081600090816100ae91906104ef565b5080600190816100be91906104ef565b505050600073ffffffffffffffffffffffffffffffffffffffff168173ffffffffffffffffffffffffffffffffffffffff16036101335760006040517f1e4fbdf700000000000000000000000000000000000000000000000000000000815260040161012a91906105d0565b60405180910390fd5b6101428161014960201b60201c565b50506105eb565b6000600760009054906101000a900473ffffffffffffffffffffffffffffffffffffffff16905081600760006101000a81548173ffffffffffffffffffffffffffffffffffffffff021916908373ffffffffffffffffffffffffffffffffffffffff1602179055508173ffffffffffffffffffffffffffffffffffffffff168173ffffffffffffffffffffffffffffffffffffffff167f8be0079c531659141344cd1fd0a4f28419497f9722a3daafe3b4186f6b6457e060405160405180910390a35050565b600080fd5b600073ffffffffffffffffffffffffffffffffffffffff82169050919050565b600061023f82610214565b9050919050565b61024f81610234565b811461025a57600080fd5b50565b60008151905061026c81610246565b92915050565b6000602082840312156102885761028761020f565b5b60006102968482850161025d565b91505092915050565b600081519050919050565b7f4e487b7100000000000000000000000000000000000000000000000000000000600052604160045260246000fd5b7f4e487b7100000000000000000000000000000000000000000000000000000000600052602260045260246000fd5b6000600282049050600182168061032057607f821691505b602082108103610333576103326102d9565b5b50919050565b60008190508160005260206000209050919050565b60006020601f8301049050919050565b600082821b905092915050565b60006008830261039b7fffffffffffffffffffffffffffffffffffffffffffffffffffffffffffffffff8261035e565b6103a5868361035e565b95508019841693508086168417925050509392505050565b6000819050919050565b6000819050919050565b60006103ec6103e76103e2846103bd565b6103c7565b6103bd565b9050919050565b6000819050919050565b610406836103d1565b61041a610412826103f3565b84845461036b565b825550505050565b600090565b61042f610422565b61043a8184846103fd565b505050565b5b8181101561045e57610453600082610427565b600181019050610440565b5050565b601f8211156104a35761047481610339565b61047d8461034e565b8101602085101561048c578190505b6104a06104988561034e565b83018261043f565b50505b505050565b600082821c905092915050565b60006104c6600019846008026104a8565b1980831691505092915050565b60006104df83836104b5565b9150826002028217905092915050565b6104f88261029f565b67ffffffffffffffff811115610511576105106102aa565b5b61051b8254610308565b610526828285610462565b600060209050601f8311600181146105595760008415610547578287015190505b61055185826104d3565b8655506105b9565b601f19841661056786610339565b60005b8281101561058f5784890151825560018201915060208501945060208101905061056a565b868310156105ac57848901516105a8601f8916826104b5565b8355505b6001600288020188555050505b505050505050565b6105ca81610234565b82525050565b60006020820190506105e560008301846105c1565b92915050565b612b2f806105fa6000396000f3fe608060405234801561001057600080fd5b50600436106101215760003560e01c80636352211e116100ad578063a22cb46511610071578063a22cb4651461031d578063b88d4fde14610339578063c87b56dd14610355578063e985e9c514610385578063f2fde38b146103b557610121565b80636352211e1461027757806370a08231146102a7578063715018a6146102d75780638da5cb5b146102e157806395d89b41146102ff57610121565b8063095ea7b3116100f4578063095ea7b3146101d557806318160ddd146101f157806323b872dd1461020f57806342842e0e1461022b578063587c753d1461024757610121565b806301ffc9a71461012657806303715b441461015657806306fdde0314610187578063081812fc146101a5575b600080fd5b610140600480360381019061013b9190611e38565b6103d1565b60405161014d9190611e80565b60405180910390f35b610170600480360381019061016b9190611fe1565b610432565b60405161017e929190612043565b60405180910390f35b61018f61046c565b60405161019c91906120eb565b60405180910390f35b6101bf60048036038101906101ba9190612139565b6104fe565b6040516101cc91906121a7565b60405180910390f35b6101ef60048036038101906101ea91906121ee565b61051a565b005b6101f9610530565b604051610206919061222e565b60405180910390f35b61022960048036038101906102249190612249565b610578565b005b61024560048036038101906102409190612249565b61067a565b005b610261600480360381019061025c919061229c565b61069a565b60405161026e919061222e565b60405180910390f35b610291600480360381019061028c9190612139565b6107cf565b60405161029e91906121a7565b60405180910390f35b6102c160048036038101906102bc9190612327565b6107e1565b6040516102ce919061222e565b60405180910390f35b6102df61089b565b005b6102e96108af565b6040516102f691906121a7565b60405180910390f35b6103076108d9565b60405161031491906120eb565b60405180910390f35b61033760048036038101906103329190612380565b61096b565b005b610353600480360381019061034e9190612461565b610981565b005b61036f600480360381019061036a9190612139565b6109a6565b60405161037c91906120eb565b60405180910390f35b61039f600480360381019061039a91906124e4565b610ab9565b6040516103ac9190611e80565b60405180910390f35b6103cf60048036038101906103ca9190612327565b610b4d565b005b6000634906490660e01b7bffffffffffffffffffffffffffffffffffffffffffffffffffffffff1916827bffffffffffffffffffffffffffffffffffffffffffffffffffffffff1916148061042b575061042a82610bd3565b5b9050919050565b6009818051602081018201805184825260208301602085012081835280955050505050506000915090508060000154908060010154905082565b60606000805461047b90612553565b80601f01602080910402602001604051908101604052809291908181526020018280546104a790612553565b80156104f45780601f106104c9576101008083540402835291602001916104f4565b820191906000526020600020905b8154815290600101906020018083116104d757829003601f168201915b5050505050905090565b600061050982610cb5565b5061051382610d3d565b9050919050565b61052c8282610527610d7a565b610d82565b5050565b60006105706040518060400160405280601481526020017f746f74616c537570706c7928292063616c6c6564000000000000000000000000815250610d94565b600854905090565b600073ffffffffffffffffffffffffffffffffffffffff168273ffffffffffffffffffffffffffffffffffffffff16036105ea5760006040517f64a0ae920000000000000000000000000000000000000000000000000000000081526004016105e191906121a7565b60405180910390fd5b60006105fe83836105f9610d7a565b610e2d565b90508373ffffffffffffffffffffffffffffffffffffffff168173ffffffffffffffffffffffffffffffffffffffff1614610674578382826040517f64283d7b00000000000000000000000000000000000000000000000000000000815260040161066b93929190612584565b60405180910390fd5b50505050565b61069583838360405180602001604052806000815250610981565b505050565b60006106a4611047565b6001600860008282546106b791906125ea565b92505081905550600060085490506106cf85826110ce565b6106d981846110ec565b60016009856040516106eb919061265a565b9081526020016040518091039020600001600082825461070b91906125ea565b925050819055506107736040518060400160405280601281526020017f6d696e7442616467652046756e6374696f6e00000000000000000000000000008152508560098760405161075c919061265a565b908152602001604051809103902060000154611148565b808573ffffffffffffffffffffffffffffffffffffffff167fcc59e316c74020ad37d5aef803aad2dea09231665fe38053bc7e041aa9c08b6486866040516107bc929190612671565b60405180910390a3809150509392505050565b60006107da82610cb5565b9050919050565b60008073ffffffffffffffffffffffffffffffffffffffff168273ffffffffffffffffffffffffffffffffffffffff16036108545760006040517f89c62b6400000000000000000000000000000000000000000000000000000000815260040161084b91906121a7565b60405180910390fd5b600360008373ffffffffffffffffffffffffffffffffffffffff1673ffffffffffffffffffffffffffffffffffffffff168152602001908152602001600020549050919050565b6108a3611047565b6108ad60006111e7565b565b6000600760009054906101000a900473ffffffffffffffffffffffffffffffffffffffff16905090565b6060600180546108e890612553565b80601f016020809104026020016040519081016040528092919081815260200182805461091490612553565b80156109615780601f1061093657610100808354040283529160200191610961565b820191906000526020600020905b81548152906001019060200180831161094457829003601f168201915b5050505050905090565b61097d610976610d7a565b83836112ad565b5050565b61098c848484610578565b6109a0610997610d7a565b8585858561141c565b50505050565b60606109b182610cb5565b5060006006600084815260200190815260200160002080546109d290612553565b80601f01602080910402602001604051908101604052809291908181526020018280546109fe90612553565b8015610a4b5780601f10610a2057610100808354040283529160200191610a4b565b820191906000526020600020905b815481529060010190602001808311610a2e57829003601f168201915b505050505090506000610a5c6115cd565b90506000815103610a71578192505050610ab4565b600082511115610aa6578082604051602001610a8e9291906126a8565b60405160208183030381529060405292505050610ab4565b610aaf846115e4565b925050505b919050565b6000600560008473ffffffffffffffffffffffffffffffffffffffff1673ffffffffffffffffffffffffffffffffffffffff16815260200190815260200160002060008373ffffffffffffffffffffffffffffffffffffffff1673ffffffffffffffffffffffffffffffffffffffff16815260200190815260200160002060009054906101000a900460ff16905092915050565b610b55611047565b600073ffffffffffffffffffffffffffffffffffffffff168173ffffffffffffffffffffffffffffffffffffffff1603610bc75760006040517f1e4fbdf7000000000000000000000000000000000000000000000000000000008152600401610bbe91906121a7565b60405180910390fd5b610bd0816111e7565b50565b60007f80ac58cd000000000000000000000000000000000000000000000000000000007bffffffffffffffffffffffffffffffffffffffffffffffffffffffff1916827bffffffffffffffffffffffffffffffffffffffffffffffffffffffff19161480610c9e57507f5b5e139f000000000000000000000000000000000000000000000000000000007bffffffffffffffffffffffffffffffffffffffffffffffffffffffff1916827bffffffffffffffffffffffffffffffffffffffffffffffffffffffff1916145b80610cae5750610cad8261164d565b5b9050919050565b600080610cc1836116b7565b9050600073ffffffffffffffffffffffffffffffffffffffff168173ffffffffffffffffffffffffffffffffffffffff1603610d3457826040517f7e273289000000000000000000000000000000000000000000000000000000008152600401610d2b919061222e565b60405180910390fd5b80915050919050565b60006004600083815260200190815260200160002060009054906101000a900473ffffffffffffffffffffffffffffffffffffffff169050919050565b600033905090565b610d8f83838360016116f4565b505050565b610e2a81604051602401610da891906120eb565b6040516020818303038152906040527f41304fac000000000000000000000000000000000000000000000000000000007bffffffffffffffffffffffffffffffffffffffffffffffffffffffff19166020820180517bffffffffffffffffffffffffffffffffffffffffffffffffffffffff83818316178352505050506118b9565b50565b600080610e39846116b7565b9050600073ffffffffffffffffffffffffffffffffffffffff168373ffffffffffffffffffffffffffffffffffffffff1614610e7b57610e7a8184866118d3565b5b600073ffffffffffffffffffffffffffffffffffffffff168173ffffffffffffffffffffffffffffffffffffffff1614610f0c57610ebd6000856000806116f4565b6001600360008373ffffffffffffffffffffffffffffffffffffffff1673ffffffffffffffffffffffffffffffffffffffff168152602001908152602001600020600082825403925050819055505b600073ffffffffffffffffffffffffffffffffffffffff168573ffffffffffffffffffffffffffffffffffffffff1614610f8f576001600360008773ffffffffffffffffffffffffffffffffffffffff1673ffffffffffffffffffffffffffffffffffffffff168152602001908152602001600020600082825401925050819055505b846002600086815260200190815260200160002060006101000a81548173ffffffffffffffffffffffffffffffffffffffff021916908373ffffffffffffffffffffffffffffffffffffffff160217905550838573ffffffffffffffffffffffffffffffffffffffff168273ffffffffffffffffffffffffffffffffffffffff167fddf252ad1be2c89b69c2b068fc378daa952ba7f163c4a11628f55a4df523b3ef60405160405180910390a4809150509392505050565b61104f610d7a565b73ffffffffffffffffffffffffffffffffffffffff1661106d6108af565b73ffffffffffffffffffffffffffffffffffffffff16146110cc57611090610d7a565b6040517f118cdaa70000000000000000000000000000000000000000000000000000000081526004016110c391906121a7565b60405180910390fd5b565b6110e8828260405180602001604052806000815250611997565b5050565b8060066000848152602001908152602001600020908161110c9190612878565b507ff8e1a15aba9398e019f0b49df1a4fde98ee17ae345cb5f6b5e2c27f5033e8ce78260405161113c919061222e565b60405180910390a15050565b6111e28383836040516024016111609392919061294a565b6040516020818303038152906040527f5821efa1000000000000000000000000000000000000000000000000000000007bffffffffffffffffffffffffffffffffffffffffffffffffffffffff19166020820180517bffffffffffffffffffffffffffffffffffffffffffffffffffffffff83818316178352505050506118b9565b505050565b6000600760009054906101000a900473ffffffffffffffffffffffffffffffffffffffff16905081600760006101000a81548173ffffffffffffffffffffffffffffffffffffffff021916908373ffffffffffffffffffffffffffffffffffffffff1602179055508173ffffffffffffffffffffffffffffffffffffffff168173ffffffffffffffffffffffffffffffffffffffff167f8be0079c531659141344cd1fd0a4f28419497f9722a3daafe3b4186f6b6457e060405160405180910390a35050565b600073ffffffffffffffffffffffffffffffffffffffff168273ffffffffffffffffffffffffffffffffffffffff160361131e57816040517f5b08ba1800000000000000000000000000000000000000000000000000000000815260040161131591906121a7565b60405180910390fd5b80600560008573ffffffffffffffffffffffffffffffffffffffff1673ffffffffffffffffffffffffffffffffffffffff16815260200190815260200160002060008473ffffffffffffffffffffffffffffffffffffffff1673ffffffffffffffffffffffffffffffffffffffff16815260200190815260200160002060006101000a81548160ff0219169083151502179055508173ffffffffffffffffffffffffffffffffffffffff168373ffffffffffffffffffffffffffffffffffffffff167f17307eab39ab6107e8899845ad3d59bd9653f200f220920489ca2b5937696c318360405161140f9190611e80565b60405180910390a3505050565b60008373ffffffffffffffffffffffffffffffffffffffff163b11156115c6578273ffffffffffffffffffffffffffffffffffffffff1663150b7a02868685856040518563ffffffff1660e01b815260040161147b94939291906129e4565b6020604051808303816000875af19250505080156114b757506040513d601f19601f820116820180604052508101906114b49190612a45565b60015b61153b573d80600081146114e7576040519150601f19603f3d011682016040523d82523d6000602084013e6114ec565b606091505b50600081510361153357836040517f64a0ae9200000000000000000000000000000000000000000000000000000000815260040161152a91906121a7565b60405180910390fd5b805181602001fd5b63150b7a0260e01b7bffffffffffffffffffffffffffffffffffffffffffffffffffffffff1916817bffffffffffffffffffffffffffffffffffffffffffffffffffffffff1916146115c457836040517f64a0ae920000000000000000000000000000000000000000000000000000000081526004016115bb91906121a7565b60405180910390fd5b505b5050505050565b606060405180602001604052806000815250905090565b60606115ef82610cb5565b5060006115fa6115cd565b9050600081511161161a5760405180602001604052806000815250611645565b80611624846119bb565b6040516020016116359291906126a8565b6040516020818303038152906040525b915050919050565b60007f01ffc9a7000000000000000000000000000000000000000000000000000000007bffffffffffffffffffffffffffffffffffffffffffffffffffffffff1916827bffffffffffffffffffffffffffffffffffffffffffffffffffffffff1916149050919050565b60006002600083815260200190815260200160002060009054906101000a900473ffffffffffffffffffffffffffffffffffffffff169050919050565b808061172d5750600073ffffffffffffffffffffffffffffffffffffffff168273ffffffffffffffffffffffffffffffffffffffff1614155b1561186157600061173d84610cb5565b9050600073ffffffffffffffffffffffffffffffffffffffff168373ffffffffffffffffffffffffffffffffffffffff16141580156117a857508273ffffffffffffffffffffffffffffffffffffffff168173ffffffffffffffffffffffffffffffffffffffff1614155b80156117bb57506117b98184610ab9565b155b156117fd57826040517fa9fbf51f0000000000000000000000000000000000000000000000000000000081526004016117f491906121a7565b60405180910390fd5b811561185f57838573ffffffffffffffffffffffffffffffffffffffff168273ffffffffffffffffffffffffffffffffffffffff167f8c5be1e5ebec7d5bd14f71427d1e84f3dd0314c0f7b2291e5b200ac8c7c3b92560405160405180910390a45b505b836004600085815260200190815260200160002060006101000a81548173ffffffffffffffffffffffffffffffffffffffff021916908373ffffffffffffffffffffffffffffffffffffffff16021790555050505050565b6118d0816118c8611a89611aaa565b63ffffffff16565b50565b6118de838383611ab5565b61199257600073ffffffffffffffffffffffffffffffffffffffff168373ffffffffffffffffffffffffffffffffffffffff160361195357806040517f7e27328900000000000000000000000000000000000000000000000000000000815260040161194a919061222e565b60405180910390fd5b81816040517f177e802f000000000000000000000000000000000000000000000000000000008152600401611989929190612a72565b60405180910390fd5b505050565b6119a18383611b76565b6119b66119ac610d7a565b600085858561141c565b505050565b6060600060016119ca84611c6f565b01905060008167ffffffffffffffff8111156119e9576119e8611eb6565b5b6040519080825280601f01601f191660200182016040528015611a1b5781602001600182028036833780820191505090505b509050600082602001820190505b600115611a7e578080600190039150507f3031323334353637383961626364656600000000000000000000000000000000600a86061a8153600a8581611a7257611a71612a9b565b5b04945060008503611a29575b819350505050919050565b60006a636f6e736f6c652e6c6f679050600080835160208501845afa505050565b611dc2819050919050565b60008073ffffffffffffffffffffffffffffffffffffffff168373ffffffffffffffffffffffffffffffffffffffff1614158015611b6d57508273ffffffffffffffffffffffffffffffffffffffff168473ffffffffffffffffffffffffffffffffffffffff161480611b2e5750611b2d8484610ab9565b5b80611b6c57508273ffffffffffffffffffffffffffffffffffffffff16611b5483610d3d565b73ffffffffffffffffffffffffffffffffffffffff16145b5b90509392505050565b600073ffffffffffffffffffffffffffffffffffffffff168273ffffffffffffffffffffffffffffffffffffffff1603611be85760006040517f64a0ae92000000000000000000000000000000000000000000000000000000008152600401611bdf91906121a7565b60405180910390fd5b6000611bf683836000610e2d565b9050600073ffffffffffffffffffffffffffffffffffffffff168173ffffffffffffffffffffffffffffffffffffffff1614611c6a5760006040517f73c6ac6e000000000000000000000000000000000000000000000000000000008152600401611c6191906121a7565b60405180910390fd5b505050565b600080600090507a184f03e93ff9f4daa797ed6e38ed64bf6a1f0100000000000000008310611ccd577a184f03e93ff9f4daa797ed6e38ed64bf6a1f0100000000000000008381611cc357611cc2612a9b565b5b0492506040810190505b6d04ee2d6d415b85acef81000000008310611d0a576d04ee2d6d415b85acef81000000008381611d0057611cff612a9b565b5b0492506020810190505b662386f26fc100008310611d3957662386f26fc100008381611d2f57611d2e612a9b565b5b0492506010810190505b6305f5e1008310611d62576305f5e1008381611d5857611d57612a9b565b5b0492506008810190505b6127108310611d87576127108381611d7d57611d7c612a9b565b5b0492506004810190505b60648310611daa5760648381611da057611d9f612a9b565b5b0492506002810190505b600a8310611db9576001810190505b80915050919050565b611dca612aca565b565b6000604051905090565b600080fd5b600080fd5b60007fffffffff0000000000000000000000000000000000000000000000000000000082169050919050565b611e1581611de0565b8114611e2057600080fd5b50565b600081359050611e3281611e0c565b92915050565b600060208284031215611e4e57611e4d611dd6565b5b6000611e5c84828501611e23565b91505092915050565b60008115159050919050565b611e7a81611e65565b82525050565b6000602082019050611e956000830184611e71565b92915050565b600080fd5b600080fd5b6000601f19601f8301169050919050565b7f4e487b7100000000000000000000000000000000000000000000000000000000600052604160045260246000fd5b611eee82611ea5565b810181811067ffffffffffffffff82111715611f0d57611f0c611eb6565b5b80604052505050565b6000611f20611dcc565b9050611f2c8282611ee5565b919050565b600067ffffffffffffffff821115611f4c57611f4b611eb6565b5b611f5582611ea5565b9050602081019050919050565b82818337600083830152505050565b6000611f84611f7f84611f31565b611f16565b905082815260208101848484011115611fa057611f9f611ea0565b5b611fab848285611f62565b509392505050565b600082601f830112611fc857611fc7611e9b565b5b8135611fd8848260208601611f71565b91505092915050565b600060208284031215611ff757611ff6611dd6565b5b600082013567ffffffffffffffff81111561201557612014611ddb565b5b61202184828501611fb3565b91505092915050565b6000819050919050565b61203d8161202a565b82525050565b60006040820190506120586000830185612034565b6120656020830184612034565b9392505050565b600081519050919050565b600082825260208201905092915050565b60005b838110156120a657808201518184015260208101905061208b565b60008484015250505050565b60006120bd8261206c565b6120c78185612077565b93506120d7818560208601612088565b6120e081611ea5565b840191505092915050565b6000602082019050818103600083015261210581846120b2565b905092915050565b6121168161202a565b811461212157600080fd5b50565b6000813590506121338161210d565b92915050565b60006020828403121561214f5761214e611dd6565b5b600061215d84828501612124565b91505092915050565b600073ffffffffffffffffffffffffffffffffffffffff82169050919050565b600061219182612166565b9050919050565b6121a181612186565b82525050565b60006020820190506121bc6000830184612198565b92915050565b6121cb81612186565b81146121d657600080fd5b50565b6000813590506121e8816121c2565b92915050565b6000806040838503121561220557612204611dd6565b5b6000612213858286016121d9565b925050602061222485828601612124565b9150509250929050565b60006020820190506122436000830184612034565b92915050565b60008060006060848603121561226257612261611dd6565b5b6000612270868287016121d9565b9350506020612281868287016121d9565b925050604061229286828701612124565b9150509250925092565b6000806000606084860312156122b5576122b4611dd6565b5b60006122c3868287016121d9565b935050602084013567ffffffffffffffff8111156122e4576122e3611ddb565b5b6122f086828701611fb3565b925050604084013567ffffffffffffffff81111561231157612310611ddb565b5b61231d86828701611fb3565b9150509250925092565b60006020828403121561233d5761233c611dd6565b5b600061234b848285016121d9565b91505092915050565b61235d81611e65565b811461236857600080fd5b50565b60008135905061237a81612354565b92915050565b6000806040838503121561239757612396611dd6565b5b60006123a5858286016121d9565b92505060206123b68582860161236b565b9150509250929050565b600067ffffffffffffffff8211156123db576123da611eb6565b5b6123e482611ea5565b9050602081019050919050565b60006124046123ff846123c0565b611f16565b9050828152602081018484840111156124205761241f611ea0565b5b61242b848285611f62565b509392505050565b600082601f83011261244857612447611e9b565b5b81356124588482602086016123f1565b91505092915050565b6000806000806080858703121561247b5761247a611dd6565b5b6000612489878288016121d9565b945050602061249a878288016121d9565b93505060406124ab87828801612124565b925050606085013567ffffffffffffffff8111156124cc576124cb611ddb565b5b6124d887828801612433565b91505092959194509250565b600080604083850312156124fb576124fa611dd6565b5b6000612509858286016121d9565b925050602061251a858286016121d9565b9150509250929050565b7f4e487b7100000000000000000000000000000000000000000000000000000000600052602260045260246000fd5b6000600282049050600182168061256b57607f821691505b60208210810361257e5761257d612524565b5b50919050565b60006060820190506125996000830186612198565b6125a66020830185612034565b6125b36040830184612198565b949350505050565b7f4e487b7100000000000000000000000000000000000000000000000000000000600052601160045260246000fd5b60006125f58261202a565b91506126008361202a565b9250828201905080821115612618576126176125bb565b5b92915050565b600081905092915050565b60006126348261206c565b61263e818561261e565b935061264e818560208601612088565b80840191505092915050565b60006126668284612629565b915081905092915050565b6000604082019050818103600083015261268b81856120b2565b9050818103602083015261269f81846120b2565b90509392505050565b60006126b48285612629565b91506126c08284612629565b91508190509392505050565b60008190508160005260206000209050919050565b60006020601f8301049050919050565b600082821b905092915050565b60006008830261272e7fffffffffffffffffffffffffffffffffffffffffffffffffffffffffffffffff826126f1565b61273886836126f1565b95508019841693508086168417925050509392505050565b6000819050919050565b600061277561277061276b8461202a565b612750565b61202a565b9050919050565b6000819050919050565b61278f8361275a565b6127a361279b8261277c565b8484546126fe565b825550505050565b600090565b6127b86127ab565b6127c3818484612786565b505050565b5b818110156127e7576127dc6000826127b0565b6001810190506127c9565b5050565b601f82111561282c576127fd816126cc565b612806846126e1565b81016020851015612815578190505b612829612821856126e1565b8301826127c8565b50505b505050565b600082821c905092915050565b600061284f60001984600802612831565b1980831691505092915050565b6000612868838361283e565b9150826002028217905092915050565b6128818261206c565b67ffffffffffffffff81111561289a57612899611eb6565b5b6128a48254612553565b6128af8282856127eb565b600060209050601f8311600181146128e257600084156128d0578287015190505b6128da858261285c565b865550612942565b601f1984166128f0866126cc565b60005b82811015612918578489015182556001820191506020850194506020810190506128f3565b868310156129355784890151612931601f89168261283e565b8355505b6001600288020188555050505b505050505050565b6000606082019050818103600083015261296481866120b2565b9050818103602083015261297881856120b2565b90506129876040830184612034565b949350505050565b600081519050919050565b600082825260208201905092915050565b60006129b68261298f565b6129c0818561299a565b93506129d0818560208601612088565b6129d981611ea5565b840191505092915050565b60006080820190506129f96000830187612198565b612a066020830186612198565b612a136040830185612034565b8181036060830152612a2581846129ab565b905095945050505050565b600081519050612a3f81611e0c565b92915050565b600060208284031215612a5b57612a5a611dd6565b5b6000612a6984828501612a30565b91505092915050565b6000604082019050612a876000830185612198565b612a946020830184612034565b9392505050565b7f4e487b7100000000000000000000000000000000000000000000000000000000600052601260045260246000fd5b7f4e487b7100000000000000000000000000000000000000000000000000000000600052605160045260246000fdfea264697066735822122059cf5931500026f04167ab2bdf1ef28694b3bd33d971ae3395e2af6a83c473ea64736f6c634300081c0033",
  "linkReferences": {},
  "deployedLinkReferences": {}
}